:040962007F147E0080
:10096600E4FDFCD3ED9FEC9E5018E4FAFBD3EB9D1F
:10097600EA9C50070BBB00010A80F20DBD00010C7A
:0209860080E10E
:01098800224C
:10080000C2A3C2A2C2A1C2A0C297C296C295C294FC
:10081000C293C292C291C290C2B5C2B4C2B3C2B1B5
:10082000C2B2C2B030B03130B02ED290C291C292BA
:10083000C293120962C290D291C292C29312096607
:10084000C290C291D292C293120966C290C291C262
:1008500092D29312096680CF30B13130B12ED2944A
:10086000C295C296C297120962C294D295C296C22C
:1008700097120966C294C295D296C297120966C2AF
:1008800094C295C296D29712096680CF30B23130A9
:10089000B22ED2A0C2A1C2A2C2A3120962C2A0D229
:1008A000A1C2A2C2A3120966C2A0C2A1D2A2C2A3BF
:1008B000120966C2A0C2A1C2A2D2A312096680CF49
:1008C00030B33130B32ED293C291C292C29012098A
:1008D00062C291D292C290C293120966C290C29231
:1008E000D291C293120966C293C291C292D290125F
:1008F000096680CF30B43130B42ED297C296C295FB
:10090000C294120962C297D296C295C29412096625
:10091000C297C296D295C294120966C297C296C275
:1009200095D29412096680CF20B50302082420B521
:1009300003020824D2A3C2A2C2A1C2A0120962C2A9
:10094000A3D2A2C2A1C2A0120966C2A3C2A2D2A10E
:10095000C2A0120966C2A3C2A2C2A1D2A012096695
:0209600080CC49
:0300000002098969
:0C098900787FE4F6D8FD758107020800B5
:00000001FF
